:020000040800F2
:10000000411106C622C40008232814FE8545230A90
:10001000B4FEB71500089385A5834146930604FFF7
:1000200097000000E7808000211106CA22C820083E
:100030002326C4FE2324B4FE232AC4FE2328B4FEB0
:100040000000411106C622C40008232814FE85457D
:10005000230AB4FEB71500089385B5845D46930660
:1000600004FF97000000E78060FC1301C1F606C999
:1000700022C7400913050002232AA4FE1305C4F673
:100080002328A4FE01452326A4FE1305C4FE9700E1
:100090000000E7808000411106C622C40008232822
:1000A000A4FEB71500089385458697000000E780F9
:1000B000A006032504FF97000000E78000168325B3
:1000C00004FF130544FF97000000E780C0170325D5
:1000D00004FF834554FFA205034644FFD18D231B33
:1000E000B4FE930564FF054697000000E780801783
:1000F00009A0032504FF930564FF97000000E78033
:100100002021032504FF9305A00F97000000E7803E
:100110000025C5B7130141FD06D422D26010232A61
:10012000A4FC8C41370600202320B6009700000075
:10013000E780A02DAA85032544FD2E86232CC4FC30
:100140002320B4FE2322B4FE97000000E780202D78
:10015000AA85232EB4FC2324A4FE2326A4FE37F56F
:10016000FF1F9305457D2328B4FE0345457D930578
:10017000F00F631BB50299A80325C4FD832584FEF7
:1001800008417199050588C1832504FEC84141765F
:100190001306C6F0718DC8C1832504FE8841370659
:1001A0000001518D88C12DA8032584FD0841232A13
:1001B000A4FE832504FE137575F037F6FF1F034672
:1001C000467D7D8A0E06518D88C17DB775B70325A2
:1001D00084FD832504FE484171990905C8C105A025
:1001E000032584FD08411A056354050019A0CDBFFD
:1001F000FDBFF1BFA25012541301C102828003253A
:1002000084FD48417205798189456314B50019A0C0
:10021000FDB7FDBFC5B7411106C622C4000897004F
:100220000000E780801E2328A4FE232AA4FE832545
:1002300004FF884D1365550388CDB2402244410127
:100240008280611106C222C02000AA850945238050
:10025000A5000145A380A5009240024421018280AF
:100260001301C1FC06D822D64018232AB4FC232649
:10027000A4FCB2862328D4FC3D8AA300C4FE03C696
:10028000050083C51500A205D18D2311B4FE930589
:1002900024FE97000000E780C019832544FD2A86CC
:1002A000232CC4FC2322A4FE2324A4FE03C5150092
:1002B0003D890A05232EA4FC158101C909A0032547
:1002C000C4FC97000000E780E0D3032584FD0326EB
:1002D000C4FD832504FD9376F601A307D4FEBD4635
:1002E000B396C6002328D4FEBD893396C500232AC1
:1002F000C4FE832544FE084193C6F6FF758D518DDB
:1003000088C1C2503254130141038280411106C694
:1003100022C400082328A4FE03C6050083C51500D7
:10032000A205D18D231AB4FE831544FF231BB4FE0E
:10033000930544FF97000000E780E017AA85032596
:1003400004FF13C61500930564FF97000000E780C3
:10035000E01AB240224441018280130141FD06D4DB
:1003600022D260102320B4FE232EA4FC2324B4FE4A
:1003700037050020032505009305803E9700000007
:10038000E780C0252A86032504FE2326C4FE814675
:10039000B68597000000E780403B3336B00023224B
:1003A000A4FE81C909A00325C4FD97000000E780D1
:1003B00060C50325C4FD832544FE2E86232AC4FC84
:1003C0002328B4FE97000000E780C01B0845232CBB
:1003D000A4FC232AA4FE31A0A25012541301C1028E
:1003E00082800325C4FD97000000E780A019032642
:1003F00084FD832544FD0845118D6364B50019A073
:10040000CDB7FDBFD1BF611106C222C02000371594
:1004100002409240024421018280611106C222C042
:100420002000372502409240024421018280311190
:1004300006C822C640082328A4FE03C50500232AB7
:10044000A4FE0D8989456307B50409A0032544FF6F
:100450000D8919CD09A0032544FF0D898545630247
:10046000B50291A00325C4FEC240324451018280EE
:10047000032504FF97000000E78000122326A4FE56
:10048000D5B7032504FF97000000E78060122326FC
:10049000A4FEC9BF032504FF97000000E780801277
:1004A0002326A4FEC1B7032504FF97000000E780C0
:1004B00080B9311106C822C640082326B4FE03C6FF
:1004C000050083C51500A205D18D2319B4FE93053F
:1004D00024FF97000000E780C0F58325C4FE232A8F
:1004E000A4FE484583C51500BD893355B50005896F
:1004F000C2403244510182801301C1FD06D022CE98
:100500004010B286232EB4FC13F616002320C4FE3E
:10051000A304C4FE03C6050083C51500A205D18D42
:100520002315B4FE9305A4FE97000000E78060F059
:100530008325C4FD2A86032504FE2326C4FE232822
:10054000C4FE83C5150013F6F5008545B395C500B7
:100550002322B4FE232AB4FE19E521A88250724456
:10056000130141028280032544FE8325C4FE88C90D
:10057000F5B7032544FE8325C4FE420588C9F9BFAB
:10058000611106C222C0200037F500E0924002440B
:1005900021018280611106C222C02000371501406E
:1005A000130505809240024421018280611106C238
:1005B00022C0200037150140924002442101828070
:1005C000611106C222C02000371501401305054005
:1005D0009240024421018280611106C222C02000A3
:1005E0000146E5C179CD1306000293060002B5C1AC
:1005F00093D6150037575555CD8E1307575593D7BA
:100600002600DD8E93D74600DD8E93D78600DD8EE3
:1006100093D70601DD8E93C6F6FF93D716007D8F24
:10062000B737333393873733998E33F7F6008982A0
:10063000FD8EB7170F0FBA9613D74600BA961387D9
:10064000F7F0F98E13978600BA9613970601BA96BB
:10065000E18235C11356150037575555498E13079A
:100660005755935726005D8E935746005D8E9357DE
:1006700086005D8E935706015D8E1346F6FF9357F5
:1006800016007D8FB737333393873733198E33771F
:10069000F60009827D8EB7170F0F3A961357460062
:1006A0003A961387F7F0798E131786003A96131748
:1006B00006013A966182B387C6407D476378F700AA
:1006C0000146328592400244210182806396E70010
:1006D000924002442101828001479382170093C710
:1006E000F701B317F5003355550093C6F6FF36965C
:1006F00093D6F70106058607558DD98F9346F5FFEA
:10070000AE9613D7F601FD86ED8E0506158D6DF2BA
:10071000139617003365E60092400244210182805F
:10072000611106C222C02000014609C99316F501D5
:100730000581FD86ED8E369686056DF932859240EF
:10074000024421018280797106D622D426D2001873
:100750002324D4FE2326C4FE2322B4FE2328A4FE91
:10076000C164FD14B3759500232CB4FC3375960059
:100770002328A4FC97000000E780C0FA93550501E8
:100780002320B4FE658D232EA4FC032504FF93557E
:100790000501232AB4FC032504FD97000000E7802F
:1007A00060F8832504FE2E95935505012320B4FEA1
:1007B000658D2328A4FC8324C4FEC180268583255F
:1007C00084FD97000000E780E0F5832504FD2E9569
:1007D000931505010326C4FDD18D232EB4FC418160
:1007E000232CA4FC2685832544FD97000000E78088
:1007F00060F3232AA4FC032544FE8325C4FE97004E
:100800000000E78020F2AA84032584FE832504FFEC
:1008100097000000E78000F12695832544FD2E9582
:10082000832504FE2E95832584FDAA950325C4FD0A
:10083000B2502254925445618280696E7465676536
:1008400072206F766572666C6F7700737769746378
:1008500068206F6E20636F72727570742076616CA1
:0808600075650000006CDC026C
:04086800006CDC0242
:00000001FF
