:020000040800F2
:10000000411106C622C40008232814FE8545230A90
:10001000B4FEB7050008938545544146930604FF96
:1000200097000000E7808000211106CA22C820083E
:100030002326C4FE2324B4FE232AC4FE2328B4FEB0
:100040000000411106C622C40008232814FE85457D
:10005000230AB4FEB7050008938555555D469306FF
:1000600004FF97000000E78060FC1301C1F606C999
:1000700022C7400913050002232AA4FE1305C4F673
:100080002328A4FE01452326A4FE1305C4FE9700E1
:100090000000E7808000011106CE22CC0010232052
:1000A000A4FEB70500089385055797000000E78078
:1000B000600C032504FE97000000E780C01B832529
:1000C00004FE1305E4FE97000000E780801D8325F1
:1000D00004FE0345F4FE22050346E4FE518D231879
:1000E000A4FE130524FF97000000E780601D032590
:1000F00004FE834534FFA205034624FFD18D231A55
:10010000B4FE930504FF05462324C4FE97000000B7
:10011000E780E01C032504FE930544FF2322B4FE80
:10012000214697000000E780801B032504FE8325FD
:1001300044FE032684FE97000000E780002509A006
:10014000032504FE831504FF231BB4FE930544FF1F
:1001500097000000E780E02BAA85032504FE13C664
:100160001500930564FF97000000E7800022C9BFD7
:10017000130141FD06D422D26010232AA4FC8C4135
:10018000370600202320B60097000000E780C02C2F
:10019000AA85032544FD2E86232CC4FC2320B4FE0F
:1001A0002322B4FE97000000E780402CAA85232E6E
:1001B000B4FC2324A4FE2326A4FE37F5FF1F9305D9
:1001C000457D2328B4FE0345457D9305F00F631B51
:1001D000B50299A80325C4FD832584FE08417199C1
:1001E000050588C1832504FEC84141761306C6F083
:1001F000718DC8C1832504FE884137060001518DE9
:1002000088C12DA8032584FD0841232AA4FE832547
:1002100004FE137575F037F6FF1F0346467D7D8A91
:100220000E06518D88C17DB775B7032584FD8325E2
:1002300004FE484171990905C8C105A0032584FD44
:1002400008411A056354050019A0CDBFFDBFF1BFD9
:10025000A25012541301C1028280032584FD48413B
:100260007205798189456314B50019A0FDB7FDBFFA
:10027000C5B7411106C622C4000897000000E780F8
:10028000A01D2328A4FE232AA4FE832504FF884D55
:100290001365550388CDB24022444101828061112B
:1002A00006C222C02000AA8509452380A500014579
:1002B000A380A5009240024421018280611106C200
:1002C00022C02000AA8509452380A5000D45A380F2
:1002D000A50092400244210182801301C1FC06D88E
:1002E00022D64018232AB4FC2326A4FCB286232855
:1002F000D4FC3D8AA300C4FE03C6050083C51500D7
:10030000A205D18D2311B4FE930524FE97000000B1
:10031000E7800017832544FD2A86232CC4FC232272
:10032000A4FE2324A4FE03C515003D890A05232E3F
:10033000A4FC158101C909A00325C4FC9700000095
:10034000E78040CC032584FD0326C4FD832504FDFE
:100350009376F601A307D4FEBD46B396C6002328C4
:10036000D4FEBD893396C500232AC4FE832544FEEE
:10037000084193C6F6FF758D518D88C1C250325425
:100380001301410382801301C1FD06D022CE40102B
:10039000B286232EB4FC13F616002320C4FEA30459
:1003A000C4FE03C6050083C51500A205D18D231523
:1003B000B4FE9305A4FE97000000E780600C83253F
:1003C000C4FD2A86032504FE2326C4FE2328C4FE7A
:1003D00083C5150013F6F5008545B395C5002322A6
:1003E000B4FE232AB4FE19E521A8825072441301F9
:1003F00041028280032544FE8325C4FE88C9F5B7E7
:10040000032544FE8325C4FE420588C9F9BF311186
:1004100006C822C640082326B4FE03C6050083C5CD
:100420001500A205D18D2319B4FE930524FF970072
:100430000000E780E0048325C4FE232AA4FE0845CB
:1004400083C51500BD893355B5000589C2403244C6
:1004500051018280611106C222C02000371502407E
:100460009240024421018280611106C222C0200014
:10047000372502409240024421018280311106C892
:1004800022C640082328A4FE03C50500232AA4FE93
:100490000D8989456307B50409A0032544FF0D892B
:1004A00019CD09A0032544FF0D8985456302B502D6
:1004B00091A00325C4FEC24032445101828003252D
:1004C00004FF97000000E780E0032326A4FED5B7D1
:1004D000032504FF97000000E78040042326A4FEC4
:1004E000C9BF032504FF97000000E78060042326AE
:1004F000A4FEC1B7032504FF97000000E780A0B465
:10050000611106C222C02000371501401305058085
:100510009240024421018280611106C222C0200063
:10052000371501409240024421018280611106C2C8
:1005300022C02000371501401305054092400244B7
:1005400021018280696E7465676572206F766572BD
:10055000666C6F7700737769746368206F6E2063D1
:100560006F72727570742076616C756500000000A2
:04057000006CDC023D
:04057400006CDC0239
:00000001FF
