:020000040800F2
:10000000711106C097000000E78080005D7186C610
:10001000A2C4A6C237F5FF1F8345457D938515F021
:1000200081CDB715024090410345457D137676F0AA
:100030006E056181518D88C1B72502409041371509
:100040000240719A050690C14C4141761306C6F0F4
:10005000F18D4CC10C4137060001D18D0CC10C4112
:100060009A05E3DE05FE4C41F19989054CC1A14595
:100070005041318AE31EB6FE0C4D93E555030CCD7D
:100080000C4D116613061602D18D09460CCD15458F
:100090002308C100A307A1002300C102A300A102FD
:1000A0000810A54597000000E780005A3745014039
:1000B0009305001A232605802324B580896523280B
:1000C0000580232A0580A1052326B5803715000861
:1000D00013052580854597000000E780E05601451F
:1000E00097000000E780E0513715000813054580B0
:1000F000914597000000E780205597000000E780B9
:10010000C04EB7040020938404000145970000000E
:10011000E780204F094597000000E780804A0545A9
:1001200097000000E780E04D294597000000E78038
:100130004049014597000000E780A04C080885452C
:1001400097000000E780803F03454101630B0510E5
:1001500042440810814597000000E780203E034597
:100160004102630A051237F500E008452AC49145AB
:10017000371500081305B58097000000E780A0211F
:1001800037150008130585822AC826CA13050006FC
:100190002ACC02CE08082546B715000893850585A8
:1001A00097000000E78080214205631B051C224563
:1001B000018D9305000397000000E7804051A94599
:1001C00097000000E780204F75059305A003970076
:1001D0000000E780C04F2A847D460810B305C500A3
:1001E0001305400632C42EC26360A4069305400680
:1001F000228597000000E780804D2AC093054006C5
:1002000097000000E780204BB304A44013F5F40FDF
:10021000A94597000000E780804B2A84A9459700F4
:100220000000E78040492246898C1365040393E56A
:100230000403A205C18DA18192462380A600A3805C
:10024000B6007916024451BF2545636F85088800C2
:1002500032959305160013660403A300C5FE2E868F
:100260007DA89145371500081305658097000000AB
:10027000E780601237150008130585822AD026D240
:10028000130500062AD402D608106146B7150008E7
:100290009385858315A8914537150008130565805A
:1002A00097000000E780200F3715000813058582AE
:1002B0002AD026D2130500062AD402D608104D46AD
:1002C000B71500089385358197000000E780000F7F
:1002D0009315050199C1268511A012553256B335E3
:1002E000B000FD15F18D9DA81375F40FA945970079
:1002F0000000E780C03DAA84A94597000000E78080
:10030000803B2246098C13E5040393650403A20590
:10031000C58DA18192462380A600A380B600B704B4
:100320000020938404000C10B295130510023306CC
:10033000C540080897000000E7804008420539E5FD
:1003400008080D46B71500089385958597000000AD
:10035000E780C00642051DE95245F24597000000BE
:10036000E78060038945371500081305058197006C
:100370000000E780400297000000E780002771B38B
:100380008145B70400209384040011A0814526858F
:10039000F1B70146B746014099CD3307C500034781
:1003A000070083A7068093F70708E5DF23A2E6800E
:1003B0000506E314B6FE8280130181FD06D222D029
:1003C00026CE2EC2AA87014432C025C2C84798470C
:1003D000B3048640B3069500924522C4A295636497
:1003E000D702D043329526863E8497000000E780EE
:1003F000202BA2874844269548C4224426940246CE
:10040000E366C4FC1DA0884300412EC626C84808E8
:10041000700085460547BE85BE84029462459315EB
:10042000050189E5A687D244C9BF0145925002540F
:10043000F2441301810282809D45232005004CC1B6
:1004400082801145828001458280B5C2130181FD01
:1004500006D222D026CEB6842AC41385F6FF2AC03F
:1004600032C2130546002EC6D845D4419045FD142E
:10047000BA96B307E6409DCC0C412E842ECC63E3A4
:10048000F5003E848325C5FF21052ACA36852286CC
:100490003EC897000000E780A020B245C8452295DD
:1004A000C8C552456246C246E3F0C6FC9DA8014657
:1004B000814541A002450E0592452E95444185C4D3
:1004C0000C4105456394A40283C5050036853E862C
:1004D0003E8497000000E780801B014632454C4572
:1004E000A2954CC581A00146814535A8198E26CA22
:1004F0002EC83284268663E3840022863685C24570
:10050000B28436CC97000000E7808019E246B245FD
:10051000C8452695D24433069440C8C5A696E37ACA
:1005200094FC01469145224592500254F244130135
:10053000810210C14CC18280511106C422C226C062
:1005400037F300E03716000885463714014093F36F
:100550001500B70516001307468083471700894228
:100560000327830083444680BD8BB397F600930630
:1005700004801386F58F93F5340093000440B6840D
:1005800099C563945500868419A0B714014080442E
:10059000832483007D8C3334800063898300998CAD
:1005A000E37F96FC81450CC14CC129A0854504C15F
:1005B0002302B500A24012448244310182806111BD
:1005C00006C222C037F400E0930500039700000044
:1005D000E780600E0C4410440D8EE36EA6FE924040
:1005E00002442101828037F500E00C45374649007E
:1005F000130606E014458D8EE3EEC6FE8280B71525
:10060000000803C625809385258083C515000D8AC3
:1006100009CA8946631CD6003716014013060640F6
:1006200001A8371601401306068019A037160140AD
:100630000589BD8919C1054511A041653315B5006E
:1006400008CA828003460500034515000D8A09CAC1
:100650008946631CD600371601401306064001A8E0
:10066000371601401306068019A0371601400A0507
:10067000BD461842B396A600BD893395A50093C523
:10068000F6FFF98D4D8D08C2828001CA2A96AA868E
:100690002380B6008506E39DC6FE8280AA8609CA2D
:1006A00003C705007D162380E600850685056DFAE3
:1006B0008280014609C99316F5010581FD86ED8EFC
:1006C000369686056DF9328582800146638905126A
:1006D000630705129302000293060002BDC113D600
:1006E0001500B75655554D8E93865655135726000F
:1006F000598E13574600598E13578600598E13573B
:100700000601598E1346F6FF13571600F98E373738
:10071000333313073733158EB376E6000982798EAB
:1007200037170F0F36969356460036969306F7F016
:10073000758E931686003696931606013696935656
:1007400086013DC11356150037575555498E13077D
:100750005755935726005D8E935746005D8E9357ED
:1007600086005D8E935706015D8E1346F6FF935704
:1007700016007D8FB737333393873733198E33772E
:10078000F60009827D8EB7170F0F3A961357460071
:100790003A961387F7F0798E131786003A96131757
:1007A00006013A9693528601B38756407D4663749C
:1007B000F6000146A9A013C6F70129C2814313839D
:1007C00017003317C5003355650013C6F6FF16969C
:1007D000931617000DC29357F701060533E776000D
:1007E0005D8D9346F5FFAE9693D3F601FD86ED8EB3
:1007F000158D0506F1BF33E6760011A02A863285F5
:100800008280020002015B575D20005B495D200091
:100810000D0A006563686F2070756C736520746FD6
:100820006F206C6F6E6700004A04000838040008EF
:10083000460400084204000874696D656F757420F1
:1008400077616974696E6720666F72206563686F8F
:0C08500064697374616E63653D206D6D1A
:00000001FF
