:020000040800F2
:10000000411106C622C40008232814FE8545230A90
:10001000B4FEB7150008938585864146930604FF14
:1000200097000000E7808000211106CA22C820083E
:100030002326C4FE2324B4FE232AC4FE2328B4FEB0
:100040000000411106C622C40008232814FE85457D
:10005000230AB4FEB7150008938595875D4693067D
:1000600004FF97000000E78060FC411106C622C42F
:100070000008232814FE8545230AB4FEB71500089E
:10008000938515894146930604FF97000000E78099
:10009000E0F91301C1F606C922C7400913050002A1
:1000A000232AA4FE1305C4F62328A4FE0145232613
:1000B000A4FE1305C4FE97000000E7808000130132
:1000C00081FC06DA22D82018137181FF2ACCB715DB
:1000D00000089385458A97000000E780600D62451F
:1000E00097000000E780E01CE245680897000000E8
:1000F000E780E01E62458345D101A2050346C101A8
:10010000D18D231FB1009305E10105469700000042
:10011000E780C01E62459305803E97000000E7809F
:10012000A02801452AD22AD009A0624597000000E4
:10013000E780A0352A862E852AC032852AC22ED68F
:1001400032D4125582563337D6003385A540198DE7
:100150002AC433B7A5003AC6B306D64036C83336EC
:10016000D60032CA6304B50032452ACA524501E5B9
:1001700001A865BFFDBF624597000000E78080E8E9
:100180002245C24593B5451F133515006D8D11ED00
:1001900009A062459305E10197000000E7808036E1
:1001A000824512452ED22AD0F1B7E9B7130141FD9D
:1001B00006D422D26010232AA4FC8C4137060020EA
:1001C0002320B60097000000E780A038AA85032509
:1001D00044FD2E86232CC4FC2320B4FE2322B4FE2F
:1001E00097000000E7802038AA85232EB4FC232442
:1001F000A4FE2326A4FE37F5FF1F9305457D232883
:10020000B4FE0345457D9305F00F631BB50299A825
:100210000325C4FD832584FE08417199050588C125
:10022000832504FEC84141761306C6F0718DC8C10E
:10023000832504FE884137060001518D88C12DA811
:10024000032584FD0841232AA4FE832504FE13759B
:1002500075F037F6FF1F0346467D7D8A0E06518DE9
:1002600088C17DB775B7032584FD832504FE484109
:1002700071990905C8C105A0032584FD08411A0527
:100280006354050019A0CDBFFDBFF1BFA2501254A9
:100290001301C1028280032584FD484172057981E2
:1002A00089456314B50019A0FDB7FDBFC5B741115D
:1002B00006C622C4000897000000E7808029232892
:1002C000A4FE232AA4FE832504FF884D136555034D
:1002D00088CDB240224441018280611106C222C011
:1002E0002000AA8509452380A5000145A380A5001B
:1002F00092400244210182801301C1FC06D822D61B
:100300004018232AB4FC2326A4FCB2862328D4FC5C
:100310003D8AA300C4FE03C6050083C51500A205DF
:10032000D18D2311B4FE930524FE97000000E780D1
:10033000C024832544FD2A86232CC4FC2322A4FE4A
:100340002324A4FE03C515003D890A05232EA4FC21
:10035000158101C909A00325C4FC97000000E780AE
:1003600060CA032584FD0326C4FD832504FD93761E
:10037000F601A307D4FEBD46B396C6002328D4FEDB
:10038000BD893396C500232AC4FE832544FE084157
:1003900093C6F6FF758D518D88C1C250325413013A
:1003A00041038280130181FD06D222D02010232236
:1003B000B4FE2320A4FE2326B4FE97000000E780AD
:1003C0000024832544FE2328A4FE232AA4FE370507
:1003D0000020032505002324A4FE9DE11DA0832504
:1003E00044FE032584FE97000000E780A033AA8521
:1003F000370500202322B500032545001DCDA1A00F
:10040000F9BF032504FE97000000E78040C683255E
:1004100004FF014588C1032504FF4105232CA4FCEA
:1004200037050020032545009305F5FF232EB4FC76
:100430003336B500636AB50031A8B705002005451D
:1004400023A2A500E9B7E1B7032504FE9700000049
:10045000E78040BB0325C4FD832584FD88C1832537
:1004600004FF014588C5832504FFC8C1B7050020E6
:1004700023A4A500832504FF154588C1925002548A
:10048000130181028280111106CC22CA6008232642
:10049000A4FE97000000E7808016AA852328B4FEFA
:1004A000232AA4FE370500200325450019CD25A0E9
:1004B000032504FF08452322A4FE37050020032559
:1004C00045002324A4FE15E535A081452E85E24094
:1004D000524471018280E9BF832584FE032544FED6
:1004E00097000000E78000248145E24052447101FA
:1004F0008280DDB70325C4FE97000000E78020B7A7
:10050000411106C622C400082328A4FE03C6050024
:1005100083C51500A205D18D231AB4FE831544FFAF
:10052000231BB4FE930544FF97000000E780600E94
:10053000AA85032504FF13C61500930564FF9700E1
:100540000000E7806011B2402244410182806111C5
:1005500006C222C020003715024092400244210109
:100560008280611106C222C02000372502409240DD
:10057000024421018280311106C822C64008232886
:10058000A4FE03C50500232AA4FE0D89894563073F
:10059000B50409A0032544FF0D8919CD09A0032541
:1005A00044FF0D8985456302B50291A00325C4FE71
:1005B000C240324451018280032504FF97000000AD
:1005C000E78000122326A4FED5B7032504FF970079
:1005D0000000E78060122326A4FEC9BF032504FFA4
:1005E00097000000E78080122326A4FEC1B70325F0
:1005F00004FF97000000E78000A5611106C222C039
:10060000200037F500E09240024421018280311140
:1006100006C822C640082326B4FE03C6050083C5CB
:100620001500A205D18D2319B4FE930524FF970070
:100630000000E78080F48325C4FE232AA4FE4845F9
:1006400083C51500BD893355B5000589C2403244C4
:10065000510182801301C1FD06D022CE4010B28626
:10066000232EB4FC13F616002320C4FEA304C4FEFC
:1006700003C6050083C51500A205D18D2315B4FE60
:100680009305A4FE97000000E78020EF8325C4FDBA
:100690002A86032504FE2326C4FE2328C4FE83C520
:1006A000150013F6F5008545B395C5002322B4FE69
:1006B000232AB4FE19E521A8825072441301410295
:1006C0008280032544FE8325C4FE88C9F5B703252F
:1006D00044FE8325C4FE420588C9F9BF611106C2E4
:1006E00022C02000371501401305058092400244C6
:1006F00021018280611106C222C02000371501400D
:100700009240024421018280611106C222C0200071
:1007100037150140130505409240024421018280B3
:10072000611106C222C020000146E5C179CD130641
:10073000000293060002B5C193D6150037575555F0
:10074000CD8E1307575593D72600DD8E93D74600DD
:10075000DD8E93D78600DD8E93D70601DD8E93C69E
:10076000F6FF93D716007D8FB73733339387373330
:10077000998E33F7F6008982FD8EB7170F0FBA9660
:1007800013D74600BA961387F7F0F98E13978600B1
:10079000BA9613970601BA96E18235C11356150031
:1007A00037575555498E13075755935726005D8E79
:1007B000935746005D8E935786005D8E93570601D2
:1007C0005D8E1346F6FF935716007D8FB737333390
:1007D00093873733198E3377F60009827D8EB717EA
:1007E0000F0F3A96135746003A961387F7F0798E13
:1007F000131786003A96131706013A966182B3875B
:10080000C6407D476378F700014632859240024436
:10081000210182806396E700924002442101828098
:1008200001479382170093C7F701B317F5003355BB
:10083000550093C6F6FF369693D6F7010605860750
:10084000558DD98F9346F5FFAE9613D7F601FD86E9
:10085000ED8E0506158D6DF2139617003365E600D3
:100860009240024421018280696E7465676572203E
:100870006F766572666C6F77007377697463682052
:100880006F6E20636F72727570742076616C75651F
:10089000006469766973696F6E206279207A657287
:0808A0006F000000006CDC0297
:0408A800006CDC0202
:00000001FF
